:100000000C9470000C9498000C9498000C94980038
:100010000C9498000C9498000C9498000C94980000
:100020000C9498000C9498000C9498000C949800F0
:100030000C9498000C9498000C9498000C949800E0
:100040000C9446030C9498000C94B6030C94900303
:100050000C9498000C9498000C9498000C949800C0
:100060000C9498000C9498004C6162203220436FED
:100070006D706C6578205374617465204D616368A0
:10008000696E6500000000002300260029000000C2
:100090000000240027002A0000000000250028009E
:1000A0002B000404040404040404020202020202F9
:1000B000030303030303010204081020408001022C
:1000C00004081020010204081020000000080002AB
:1000D0000100000304070000000000000000E80326
:1000E00011241FBECFEFD8E0DEBFCDBF11E0A0E0EE
:1000F000B1E0EEEFFCE002C005900D92A237B1072F
:10010000D9F722E0A2E7B1E001C01D92A332B20705
:10011000E1F710E0C0E7D0E004C02197FE010E94A3
:100120007206CF36D107C9F70E9439040C947D06B8
:100130000C940000833081F028F4813099F08230F3
:10014000A1F008958730A9F08830B9F08430D1F457
:10015000809180008F7D03C0809180008F77809395
:100160008000089584B58F7702C084B58F7D84BDEB
:1001700008958091B0008F7703C08091B0008F7D8B
:100180008093B00008951F93CF93DF93282F30E022
:10019000F901E653FF4F8491F901EA54FF4FD491DE
:1001A000F901EE55FF4FC491CC23C1F0162F8111F8
:1001B0000E949A00EC2FF0E0EE0FFF1FE856FF4F71
:1001C000A591B4919FB7F894111104C08C91D0956A
:1001D000D82302C0EC91DE2BDC939FBFDF91CF913F
:1001E0001F910895CF93DF9390E0FC01EA54FF4FF5
:1001F0002491FC01EE55FF4F8491882361F190E03A
:10020000880F991FFC01E257FF4FC591D491FC0163
:10021000E856FF4FA591B491611109C09FB7F894BA
:100220008881209582238883EC912E230BC0623035
:1002300061F49FB7F8948881322F309583238883A7
:10024000EC912E2B2C939FBF06C08FB7F894E881BA
:100250002E2B28838FBFDF91CF9108953FB7F8945D
:1002600080917E0190917F01A0918001B0918101E8
:1002700026B5A89B05C02F3F19F00196A11DB11D01
:100280003FBFBA2FA92F982F8827820F911DA11D3C
:10029000B11DBC01CD0142E0660F771F881F991F79
:1002A0004A95D1F70895CF92DF92EF92FF920E9484
:1002B0002E016B017C010E942E01DC01CB018C1907
:1002C0009D09AE09BF09883E9340A105B10598F389
:1002D000FF90EF90DF90CF900895CF92DF92EF9252
:1002E000FF920F931F93CF93DF936C017A018B01E1
:1002F000C0E0D0E0CE15DF0581F0D8016D918D0111
:10030000D601ED91FC910190F081E02DC601099597
:10031000892B11F02196EECF7E01C701DF91CF919D
:100320001F910F91FF90EF90DF90CF900895089567
:1003300080E090E00895FC01538D448D252F30E03E
:10034000842F90E0821B930B541710F0CF960895E2
:1003500001970895FC01918D828D981761F0828D2F
:10036000DF01A80FB11D5D968C91928D9F5F9F73E9
:10037000928F90E008958FEF9FEF0895FC01918D8B
:10038000828D981731F0828DE80FF11D858D90E0F8
:1003900008958FEF9FEF0895FC01918D228D892F95
:1003A00090E0805C9F4F821B91098F73992708957D
:1003B00082E891E00E94CC0121E0892B09F420E041
:1003C000822F0895FC01848DDF01A80FB11DA35A6F
:1003D000BF4F2C91848D90E001968F739927848F65
:1003E000A689B7892C93A089B1898C918370806488
:1003F0008C93938D848D981306C00288F389E02D29
:1004000080818F7D80830895EF92FF920F931F93D9
:10041000CF93DF93EC0181E0888F9B8D8C8D9813B7
:1004200005C0E889F989808185FD26C0F62E0B8DEF
:1004300010E00F5F1F4F0F731127E02E8C8DE81215
:100440000CC00FB607FCFACFE889F989808185FFD7
:10045000F5CFCE010E94E201F1CF8B8DFE01E80FB6
:10046000F11DE35AFF4FF0829FB7F8940B8FEA8992
:10047000FB89808180620AC09FB7F894EE89FF896A
:100480006083E889F98980818370806480839FBF5D
:1004900081E090E0DF91CF911F910F91FF90EF905D
:1004A0000895CF93DF93EC01888D8823C9F0EA8902
:1004B000FB89808185FD05C0A889B9898C9186FD5D
:1004C0000FC00FB607FCF5CF808185FFF2CFA8895A
:1004D000B9898C9185FFEDCFCE010E94E201E7CF73
:1004E000DF91CF91089580E090E0892B29F00E9460
:1004F000D80181110C94000008958F929F92AF92C1
:10050000BF92CF92DF92EF92FF92CF93DF936B0176
:100510007C0160E08BE00E94C300C7E1D0E0812C49
:10052000912C54018394D501C4010C2E04C0880F72
:10053000991FAA1FBB1F0A94D2F78C219D21AE21BF
:10054000BF2161E0892B8A2B8B2B09F460E08CE0C2
:100550000E94C30061E08BE00E94C30060E08BE07A
:100560000E94C3002197F8F661E08BE00E94C3006F
:10057000DF91CF91FF90EF90DF90CF90BF90AF9041
:100580009F908F900C94530160E070E0CB010C942D
:100590007D02009769F0FC0101900020E9F7319796
:1005A000AF01481B590BBC0182E891E00C946D012E
:1005B00080E090E00895CF93DF930E94C902EC01A0
:1005C00082E191E00E94C9028C0F9D1FDF91CF91C3
:1005D00008950E9478068F929F92AF92BF92CF9219
:1005E000DF92EF92FF92CF93DF93CDB7DEB7A19763
:1005F0000FB6F894DEBF0FBECDBF0E942E014B0197
:100600005C016FEF70E080E090E00E947D020E944C
:100610002E016B017C0185E191E00E94C902A701D6
:100620009601281939094A095B0919A27E0181E25C
:10063000E80EF11C8AE0882E912CA12CB12CCA0165
:10064000B901A50194010E945006605DF701629313
:100650007F01211531054105510589F7CF010E9420
:10066000C90286E391E00E94DB02A1960FB6F894DE
:10067000DEBF0FBECDBFDF91CF91FF90EF90DF9037
:10068000CF90BF90AF909F908F9008951F920F9240
:100690000FB60F9211242F933F938F939F93AF9395
:1006A000BF9380917A0190917B01A0917C01B091E0
:1006B0007D013091790123E0230F2D3720F401963D
:1006C000A11DB11D05C026E8230F0296A11DB11D75
:1006D0002093790180937A0190937B01A0937C0110
:1006E000B0937D0180917E0190917F01A091800166
:1006F000B09181010196A11DB11D80937E0190935F
:100700007F01A0938001B0938101BF91AF919F9130
:100710008F913F912F910F900FBE0F901F901895C2
:100720001F920F920FB60F9211242F933F934F9366
:100730005F936F937F938F939F93AF93BF93EF9349
:10074000FF9382E891E00E94E201FF91EF91BF9157
:10075000AF919F918F917F916F915F914F913F9159
:100760002F910F900FBE0F901F9018951F920F9210
:100770000FB60F9211242F938F939F93EF93FF93B4
:10078000E0919201F09193018081E0919801F091C4
:10079000990182FD12C0908180919B018F5F8F73C0
:1007A00020919C01821751F0E0919B01F0E0EE57FF
:1007B000FE4F958F80939B0101C08081FF91EF9147
:1007C0009F918F912F910F900FBE0F901F901895B2
:1007D000109285011092840188EE93E0A0E0B0E0D1
:1007E0008093860190938701A0938801B09389013B
:1007F00084E091E0909383018093820185EC90E006
:1008000090938F0180938E0184EC90E090939101FE
:100810008093900180EC90E09093930180939201FB
:1008200081EC90E0909395018093940182EC90E0AC
:10083000909397018093960186EC90E090939901B4
:100840008093980110929B0110929C0110929D013F
:1008500010929E0181E090E02091210230912202CD
:10086000232B11F080E090E09093200280931F02F0
:100870000895789484B5826084BD84B5816084BD18
:1008800085B5826085BD85B5816085BD80916E002E
:10089000816080936E00109281008091810082605F
:1008A000809381008091810081608093810080919C
:1008B00080008160809380008091B100846080938B
:1008C000B1008091B00081608093B00080917A0087
:1008D000846080937A0080917A00826080937A00AD
:1008E00080917A00816080937A0080917A0080689C
:1008F00080937A001092C10062E085E00E94F200CD
:1009000061E08BE00E94F20061E08CE00E94F20066
:1009100060E081E10E94F20061E082E10E94F20069
:1009200061E082E10E94C30061E083E10E94F20085
:1009300060E083E10E94C300E0919201F091930195
:1009400082E08083E0918E01F0918F011082E0912E
:100950009001F09191018FEC808310929A01E091C7
:100960009601F091970186E08083E0919401F091E7
:100970009501808180618083E0919401F0919501DF
:10098000808188608083E0919401F091950180815D
:1009900080688083E0919401F091950180818F7D42
:1009A0008083C8E6D0E0FE01649161111DC082E140
:1009B00091E00E94C9024FEC442E40E0542E5BEBC4
:1009C000652E50E0752E07EA10E0EE24E394F12C3A
:1009D00073E0C72ED12CE4E0AE2EB12CF3E43F2E11
:1009E000A2E08A2E912C4DC082E891E00E94040280
:1009F0002196892BC1F6DBCF81110E949A00E22D4E
:100A0000F0E0EE0FFF1FEC57FF4FA591B4918C91D2
:100A1000D82331E020E009F430E0832F922F9C01AD
:100A2000F1E02F27217020937801892B09F4C0E091
:100A3000C0937601809121029091220220911F02A1
:100A4000309120029093200280931F028230910502
:100A500009F464C044F5009719F5232B21F085E4CF
:100A600091E00E94DB020E94C402809176018823FB
:100A700021F0F0922202E09221020E9453010E9492
:100A80007302C0917801C0937701F2018491F30160
:100A9000D491F80124902110AFCF80E090E0BFCF37
:100AA000019749F0F8C08330910509F46AC00497B2
:100AB00009F49EC0F0C02130310541F0109275015B
:100AC000109274018DE491E00E94DB028091740128
:100AD00090917501019690937501809374018A3FFE
:100AE00091051CF40E94EB0202C00E94C402809196
:100AF000740190917501883E934024F01092750125
:100B00001092740180917601882309F4B6CF0E9477
:100B1000C4029092220280922102AFCF223031058E
:100B200041F0109275011092740185E591E00E94E8
:100B3000DB02C0917401D09175012196D0937501AB
:100B4000C0937401CA3FD1053CF460E070E08FEFC0
:100B500090E00E947D0209C00E94C402C83ED340BA
:100B600024F010927501109274018091760188230F
:100B700009F483CF0E94C402D0922202C0922102C3
:100B80007CCF2330310541F0109275011092740131
:100B90008DE591E00E94DB028091740190917501D6
:100BA00001969093750180937401843F91403CF4C9
:100BB00060E070E08FEF90E00E947D0202C00E9432
:100BC000EB028091740190917501883E934024F06E
:100BD000109275011092740180917601882309F4B6
:100BE0004CCF0E94C402B0922202A092210245CFB3
:100BF0002430310541F0109275011092740186E69F
:100C000091E00E94DB028091740190917501019640
:100C1000909375018093740130927C0080917A00EA
:100C2000806480937A0080917A0086FDFCCF809169
:100C300078002091790090E0922B9093730180933B
:100C4000720197FD019695958795209174013091D9
:100C50007501281739073CF460E070E08FEF90E0F1
:100C60000E947D0202C00E94EB022091740130912B
:100C7000750180917201909173012817390724F052
:100C8000109275011092740180917601882309F405
:100C9000F4CE0E94C4021092220210922102EDCEE4
:100CA000A1E21A2EAA1BBB1BFD010DC0AA1FBB1F70
:100CB000EE1FFF1FA217B307E407F50720F0A21BE2
:100CC000B30BE40BF50B661F771F881F991F1A944F
:100CD00069F760957095809590959B01AC01BD0179
:100CE000CF010895EE0FFF1F0590F491E02D0994B8
:0E0CF00081E090E0F8940C947D06F894FFCF1C
:100CFE000000000004026D019B015102CC01AA010B
:100D0E00BE010D0A00446973706C6179696E6720CB
:100D1E0074686520677265656E20636F6C6F7220F4
:100D2E00746F6F6B2000206D6963726F7365636FF4
:100D3E006E647320004C45445F4F464600424C495A
:100D4E004E4B5F4700424C494E4B5F5200424C495E
:100D5E004E4B5F475200424C494E4B5F52415445F9
:020D6E00000083
:00000001FF
